:020000040000FA
:10000000380B00106901000071010000730100004D
:100010007501000077010000790100000000000078
:100020000000000000000000000000007B01000054
:100030007D010000000000007F0100008101000040
:1000400083010000830100008301000083010000A0
:1000500083010000690400003B05000083010000EB
:100060008301000083010000830100008301000080
:100070008301000083010000830100008301000070
:100080008301000083010000830100008301000060
:100090008301000083010000830100008301000050
:1000A00083010000E50D00008301000083010000D2
:1000B0008301000083010000830100008301000030
:1000C00083010000830100008301000000F002F8BA
:1000D00000F03AF80AA090E8000C82448344AAF1A8
:1000E0000107DA4501D100F02FF8AFF2090EBAE8A6
:1000F0000F0013F0010F18BFFB1A43F0010318475C
:100100006413000084130000103A24BF78C878C13B
:10011000FAD8520724BF30C830C144BF04680C600D
:10012000704700000023002400250026103A28BF55
:1001300078C1FBD8520728BF30C148BF0B60704759
:100140001FB51FBD10B510BD00F0ABF81146FFF78D
:10015000F7FF00F0FFFE00F0C9F803B4FFF7F2FF6D
:1001600003BC01F079F900000948804709480047BD
:10017000FEE7FEE7FEE7FEE7FEE7FEE7FEE7FEE757
:10018000FEE7FEE704480549034A054B70470000B7
:10019000810A0000CD00000038090010380B001063
:1001A000380900103749096841F48051364AC2F8CD
:1001B000C41030B1012810D002281AD0032830D141
:1001C00023E03249496821F44041304A51601146E8
:1001D000496841F48041516024E02C49496821F488
:1001E00040312A4A51601146496841F480315160DA
:1001F00018E02649496821F44021244A51601146FB
:10020000496841F4802151600CE02049496821F49B
:1002100040111E4A51601146496841F480115160F5
:1002200000E0704700BF1A49096821F04071164A82
:10023000C2F8A8111749184A116000BFF1E701463A
:100240001548006820F0FF00134A1060104600684F
:1002500001228A401043104A10601046006820F0C6
:10026000E06010601046006840F08070106000BFD1
:100270000948406810F0004FFAD007484068C0F3C2
:100280000B107047C4C00F4000C00F4000C00240B8
:10029000A8C10F4000042000004003407047704791
:1002A0007047754601F0D4F8AE46050069465346DE
:1002B00020F00700854618B020B5FFF763FFBDE8C2
:1002C00020404FF000064FF000074FF000084FF0BD
:1002D000000B21F00701AC46ACE8C009ACE8C0094E
:1002E000ACE8C009ACE8C0098D4670470446AFF3DE
:1002F00000802046FFF731FF70470000FFFFFFFF3F
:1003000070B50646AF48006840F00800AE49C1F835
:10031000C400AE48006820F0C00040F04000AB4987
:1003200008604FF08300AA490873AA480468A748E8
:100330000068C0F3811020B1012804D0022806D142
:1003400003E0A40805E000BF03E0640801E0E4085E
:1003500000BF00BF2009B0FBF6F59D490D70280ACB
:1003600008710320087307200872012048600520E7
:1003700000F01CF970BD70B506469248006840F068
:1003800010009149C1F8C4009048006820F4407002
:1003900040F480708D4908604FF083008E490873E7
:1003A0008C48046889480068C0F3012020B1012806
:1003B00004D0022806D103E0A40805E000BF03E052
:1003C000640801E0E40800BF00BF2009B0FBF6F5B7
:1003D00081490D70280A08710320087307200872EC
:1003E00001204860062000F0E1F870BD00BF7849A8
:1003F000097D11F0200FFAD075490870704700BFD1
:100400007549097D11F0200FFAD0734908707047C3
:1004100000B5024603E012F8010BFFF7E7FF107882
:100420000028F8D100BD00B5024603E012F8010B28
:10043000FFF7E5FF10780028F8D100BD00BF027D6E
:1004400012F0200FFBD00170704710B50B46002151
:1004500007E000BF047D14F0200FFBD05C5C04704B
:10046000491C9142F5D310BD70B55948856815F007
:10047000010F61D1C5F34206022E01D0062E5AD1DA
:1004800054E05348047855480078F8B9AA2C07D1AD
:100490000220524908704E49204600F0A9F93AE07E
:1004A00001204E4908704E490868411C4C4A1160B1
:1004B0004C490C5404BB104602684548FFF7C5FF81
:1004C0000020464908704649086024E04348007807
:1004D000012812D142490868411C414A1160414932
:1004E0000C544CB9104602683948FFF7AEFF0020A3
:1004F0003A4908703A4908600DE038480078022807
:1005000009D13349204600F073F900F009FA10B917
:1005100000203249087032480068B0F57A7F04D371
:1005200000202F4908602D49087000BF2848007D31
:1005300010F0010FA5D100BF70BD70B526488468CA
:1005400014F0010F31D1C4F34205022D01D0062D64
:100550002AD124E0204806782348007810B90120E9
:100560002149087021490868411C204A116020492E
:100570000E544EB9104602681748FFF766FF002078
:10058000194908701949086018480068B0F57A7F61
:1005900004D30020154908601349087000BF0E48B5
:1005A000007D10F0010FD5D100BF70BD00F01F021B
:1005B0000121914042094FF0E02303EB8202C2F88F
:1005C00000117047C4C00F4000C00F40A8C10F40C9
:1005D00000C00040140000100000014000000010A6
:1005E000040000102400001001000010080000109A
:1005F0000C04001070B504460D4628786040287041
:10060000AA2C0AD17D21C8480068FFF717FF0121F5
:10061000C5480068FFF712FF1EE0552C0AD17D2166
:10062000C1480068FFF70AFF0221BF480068FFF7D2
:1006300005FF11E07D2C0AD17D21BB480068FFF742
:10064000FDFE0321B8480068FFF7F8FE04E02146EC
:10065000B5480068FFF7F2FE70BD7CB505460E4652
:1006600000200090AA21B0480068FFF7E7FE0024B0
:1006700005E0285D6946FFF7BDFF601CC4B2B442C7
:10068000F7DB0020019001A99DF80000FFF7B2FF01
:100690005521A5480068FFF7D1FE7CBD38B504465A
:1006A000002000908DF8004002216846FFF7D5FF3A
:1006B00038BD38B504469DA0006800908DF8004014
:1006C00002216846FFF7C9FF38BD2DE9FC4798486D
:1006D00090F800A0BAF1520F03D0BAF1530F70D1C5
:1006E0005BE093484078A0282FD1924800780328F7
:1006F00004D0E120FFF7DDFFBDE8FC878C4890F8CF
:1007000001908778B9F1A00F01D1072F03DDE72011
:10071000FFF7CFFFF0E73846FFF744FD3846FFF715
:100720008EFD804652208DF8000000208DF80100DB
:100730004FEA18208DF8020008F0FF008DF8030042
:1007400004216846FFF789FF4FE07A4800780328C4
:1007500003D0E120FFF7ADFFCEE7754846788578F6
:10076000042E01DC1F2D03DDE220FFF7A2FFC3E70B
:100770002946304600F09CFA0446FF2C03D1E320C2
:10078000FFF797FFB8E752208DF800008DF8014081
:1007900002216846FFF761FF27E0664800780428D9
:1007A00003D0E320FFF785FFA6E761484678857808
:1007B000C4781F2D01DC012C04DDE420FFF779FF54
:1007C0009AE70EE0234601222946304600F026FA39
:1007D00022462946304600F04DFA5320FFF75EFFCF
:1007E00003E0E020FFF765FF00BF00BF00BF83E725
:1007F0002DE9F04104460E464B4806604E4800780D
:1008000020B101280DD002287ED152E0AA2C07D1B8
:10081000002048490870494908700120464908707D
:1008200072E07D2C03D102204349087040E0552C32
:100830002ED140480078012807DAE620FFF739FF7B
:1008400000203D490870BDE8F0813A480078401E1C
:1008500037490F5C0025002004E03549095C4D4014
:10086000411CC8B233490978491E8142F5DCBD42BA
:1008700007D130480078401E2E490870FFF725FF49
:1008800002E0E520FFF715FF00202B4908700FE07C
:1008900028480078202808DA264801780078401C8B
:1008A000244A10702248445402E000202249087073
:1008B0002AE0012C04D0022C04D0032C06D103E042
:1008C000AA2407E0552405E07D2403E000201A490E
:1008D0000870B8E700BF17480078202810DA1548DC
:1008E00001780078401C134A107011484454134892
:1008F000007860401149087001200F49087002E03B
:1009000000200D49087000BF00BF00BF9BE700201A
:100910000849087008490870094803490860704789
:1009200005480078704700001000001000FF00002C
:10093000F40700100D0000100E0000100C00001055
:1009400000C0004095480068C0F30160032864D1EE
:100950009348006810F0030006D0012823D0022835
:100960003FD0032858D100E000BF8C480068C0F396
:100970000E0000F101004FEA40008A4900FB01F03F
:100980008949D1F88810C1F3074101F10101B0FB99
:10099000F1F186480068C0B200F10100B1FBF0F04F
:1009A0008349086038E07D480068C0F30E0000F11C
:1009B00001004FEA40007F4900FB01F07A49D1F87D
:1009C0008810C1F3074101F10101B0FBF1F1774853
:1009D0000068C0B200F10100B1FBF0F0744908609A
:1009E0001AE06E480068C0F30E0000F101004FEA03
:1009F00000416D48D0F88800C0F3074000F10100C5
:100A0000B1FBF0F169480068C0B200F10100B1FB30
:100A1000F0F06749086000BF2FE06148006810F0FF
:100A2000030006D0012810D0022819D0032823D1B2
:100A300000E000BF5D480068C0B200F10100594904
:100A4000B1FBF0F05A49086016E058480068C0B29F
:100A500000F101005749B1FBF0F0554908600BE087
:100A600052480068C0B200F101004FF40041B1FBF0
:100A7000F0F04F49086000BF00BF704700BFFEE7BD
:100A800020204D4908604848D0F8A00110F0200F00
:100A900005D000BF4848006810F0400FFAD002208F
:100AA000424908604FF000003F49C1F8A80143499E
:100AB00008604FF001003A49086041484149086028
:100AC0004FF0AA00404908604FF0550008604FF011
:100AD00001003E4908604FF0AA003B4908604FF012
:100AE00055003149C1F88C0000BF2C48006810F057
:100AF000806FFAD00320354908604FF0AA002A49D8
:100B0000C1F88C004FF055002F49086000BF234802
:100B1000006810F0407FFAD023202D4908604FF084
:100B2000AA002149C1F8AC004FF0550029490860DE
:100B30004FF00100284908604FF0AA0025490860DD
:100B40004FF055001849C1F8AC0000BF23480068B9
:100B500010F4806FFAD003201F4908604FF0AA00FC
:100B60001149C1F8AC004FF055001A49086000BFA8
:100B70001A48006810F4407FFAD0194819490860F3
:100B80004FF000000849C1F8C80144F23A0008607B
:100B90004FF00000144908607047000088C00F4003
:100BA0000CC10F4000093D0000C00F4004C10F40C0
:100BB00014000010001BB700A0C10F40ACC10F40D3
:100BC0003B00030084C00F408CC00F4080C00F402A
:100BD000A4C00F40ACC00F40A0C00F40A8C00F4041
:100BE000DE872804C4C00F4008ED00E00146052957
:100BF00012D2DFE801F00305080B0E0077487047BA
:100C000076482030FBE775484030F8E7734860309D
:100C1000F5E772488030F2E70020F0E72DE9F04177
:100C200006460C46174698463046FFF7DFFF054656
:100C30000DB11F2C01DDBDE8F0810120684901EBF9
:100C4000461108557FB128680121A140084328605A
:100C5000B8F1000F03D00120A040A86108E00120F6
:100C6000A040E86104E028680121A1408843286091
:100C700000BFE0E72DE9F04106460C461746304636
:100C8000FFF7B4FF05460DB11F2C01DDBDE8F08173
:100C9000534800EB4610005D00B9F7E71FB1012093
:100CA000A040A86102E00120A040E86100BFEDE79C
:100CB00070B505460C462846FFF798FF06460EB16C
:100CC0001F2C01DDFF2070BD454800EB4510005D85
:100CD00008B9FF20F7E770690121A140084201D05F
:100CE0000120F0E70020EEE710B5002301220921E2
:100CF0001846FFF793FF0023012202210846FFF761
:100D00008DFF0023012203210220FFF787FF00232C
:100D100001220B210220FFF781FF002301220D2178
:100D20000220FFF77BFF002301220B211846FFF76B
:100D300075FF0023012219210320FFF76FFF002315
:100D400001221A210320FFF769FF00231A46082118
:100D50001846FFF763FF00231A4606211846FFF7DF
:100D60005DFF00231A4607211846FFF757FF0023AF
:100D70001A460A211846FFF751FF00231A4601219F
:100D80001846FFF74BFF00231A4619461846FFF78F
:100D900045FF00231A461D210120FFF73FFF0023D6
:100DA0001A461C210120FFF739FF00231A4616219D
:100DB0000120FFF733FF00231A4614210120FFF71B
:100DC0002DFF00231A4615210120FFF727FF0023DE
:100DD0001A4613210120FFF721FF10BD00C0092092
:100DE000140800102DE9F041A348C468A348C56861
:100DF000002C55D014F0010F3AD0A14800780028FB
:100E000030D19D48406A9F4B18609B48006AC0F3F0
:100E10000340187118460079082801DD0820187170
:100E20009548816AC26A002008E0C30021FA03F3F2
:100E3000DEB2944B5B1D1E54431CD8B20428F4DB75
:100E4000002009E0C30022FA03F3DFB28D4B5B1DE3
:100E5000061D9F55431CD8B20428F3DB0120884BA4
:100E6000187002E088A0FFF7D3FA04208249486096
:100E700014F0020F02D001208A49086014F4003FE8
:100E800002D089A0FFF7C4FA14F4001F02D08BA08F
:100E9000FFF7BEFA14F4800F02D08EA0FFF7B8FA65
:100EA000002D55D015F0010F3AD08E48007880BB48
:100EB0007248406A8C4B18607048006AC0F3034067
:100EC000187118460079082801DD082018716B4850
:100ED000816AC26A002008E0C30021FA03F3DEB28F
:100EE000814B5B1D1E54431CD8B20428F4DB002048
:100EF00009E0C30022FA03F3DFB27B4B5B1D061D42
:100F00009F55431CD8B20428F3DB0120754B1870A1
:100F100003E0FFE775A0FFF77BFA0420574948601C
:100F200015F0020F02D001207749086015F4003F48
:100F300002D076A0FFF76CFA15F4001F02D078A05B
:100F4000FFF766FA15F4800F02D07BA0FFF760FA76
:100F5000BDE8F0811CB500BF00BF7B48006820F0F1
:100F6000F000794908600846006840F050000860C9
:100F700000BF00BF0846006920F00F000861084666
:100F8000006940F00A00086100BF00BF08464068E1
:100F900020F4705048600846406840F47050486043
:100FA00000BF00BF0846006820F470600860084673
:100FB000006840F42060086000BF00BF4FF4E130DB
:100FC000FFF79EF94FF4E130FFF7D5F90320FFF763
:100FD000E9F800F00FF900F047F9FFF785FE62B677
:100FE00000F0C6F847E000F0CAF900F0EDF9244837
:100FF0000078E0B1002005E02249491D095C0DF8A8
:101000000010401C1F4909798142F5DC9DF8000061
:10101000012809D14FF47A7000F098F81948027944
:101020006946002000F055F90020154908702D4848
:101030000078E0B1002005E02B49491D095C0DF85E
:101040000010401C284909798142F5DC9DF8000018
:10105000022809D14FF47A7000F078F8224802791A
:101060006946002000F060F900201E4908704FF426
:101070007A7000F06BF8B6E700400440008004404E
:1010800018000010B408001043414E31205258207F
:10109000427566666572204F76657272756E210DB7
:1010A0000A0000001C00001043414E312048572028
:1010B0004F76657272756E210D0A000043414E3104
:1010C000204572726F72205761726E696E67210DD2
:1010D0000A00000043414E31204275732D4F666671
:1010E000210D0A0019000010C408001043414E32BF
:1010F00020525820427566666572204F766572727E
:10110000756E210D0A0000002000001043414E3290
:10111000204857204F76657272756E210D0A0000C7
:1011200043414E32204572726F72205761726E6970
:101130006E67210D0A00000043414E322042757354
:101140002D4F6666210D0A0000C0024008B500213F
:101150000BE00022009202E0009A521C009241F241
:101160008833009A9A42F7D3491C8142F1D308BDD3
:101170000220AE49086070472DE9F041AC4FDFF81E
:10118000B4C261450CD101EB410C4FEA8C0CB8465E
:10119000B8FBFCFCACF1010407250226002212E09A
:1011A000A1F5F43CBCF1480C0BD1C1EB011CDFF8FC
:1011B0008082B8FBFCFCACF1010409250326002267
:1011C00001E0BDE8F0814FEA026C4CEA065C4CEAB3
:1011D000054C4CEA0403012804D1DFF85CC2CCF8CA
:1011E000143005E0022803D1DFF850C2CCF81430E7
:1011F00000BFE6E710B59248006840F400509149FE
:10120000C1F8C4000846D0F8AC0120F040608E4917
:1012100008604FF001008849086000BF86480068F8
:1012200010F0010FFAD01820834948600020886030
:1012300008610846006840F0040008607D4901200C
:10124000FFF79AFF81487C4908610846006820F052
:101250000100086000BF7848006810F0010FFAD163
:10126000192000F0D6F810BD10B57548006840F49C
:1012700080407449C1F8C4000846D0F8AC0120F0A1
:101280004050714908604FF001006C49086000BF90
:101290006A48006810F0010FFAD0182067494860CA
:1012A00000208860086163490220FFF765FF7B200A
:1012B000624908610846006820F00100086000BF2C
:1012C0005E48006810F0010FFAD1192000F0A1F873
:1012D00010BD10B503465848806810F0040F01D1C6
:1012E000002010BD544843631007000B524C20638C
:1012F000C87800068C7840EA04404C7840EA042024
:101300000C7820434C4CA063C87900068C7940EAE5
:1013100004404C7940EA04200C792043464CE063B9
:101320000120606000BFDCE710B5034643488068D9
:1013300010F0040F01D1002010BD40484363100796
:10134000000B3E4C2063C87800068C7840EA0440CD
:101350004C7840EA04200C782043384CA063C879CC
:1013600000068C7940EA04404C7940EA04200C796C
:101370002043324CE0630120606000BFDCE700B531
:101380002D48806810F0800F1DD001202A49086088
:1013900000BF2948006810F0010FFAD00A20FFF7BB
:1013A000D5FE2548006820F001002349086000BFF1
:1013B0002148006810F0010FFAD11F48006840F082
:1013C00004001D49086000BD00B51C48806810F08D
:1013D000800F1DD001201949086000BF1748006820
:1013E00010F0010FFAD00A20FFF7B0FE1348006892
:1013F00020F001001149086000BF1048006810F09B
:10140000010FFAD10D48006840F004000B49086054
:1014100000BD00F01F020121914042094FF0E0237E
:1014200003EB8202C2F800117047000000C00340C5
:1014300080C3C90120A1070000400440008004408F
:10144000C4C00F4000C00F40ACC10F400300E20019
:1014500000487047D408001001491820ABBEFEE7D1
:101460002600020084140000000000102400000088
:1014700008010000A814000024000010140B000054
:101480002401000000000000000000000000000037
:101490000000000000000000000E27070000000010
:0814A000000000000000000044
:04000005000001698D
:00000001FF
