:020000040000FA
:10000000080B00106901000071010000730100007D
:100010007501000077010000790100000000000078
:100020000000000000000000000000007B01000054
:100030007D010000000000007F0100008101000040
:1000400083010000830100008301000083010000A0
:1000500083010000690400003B05000083010000EB
:100060008301000083010000830100008301000080
:100070008301000083010000830100008301000070
:100080008301000083010000830100008301000060
:100090008301000083010000830100008301000050
:1000A0008301000083010000830100008301000040
:1000B0008301000083010000830100008301000030
:1000C00083010000830100008301000000F002F8BA
:1000D00000F03AF80AA090E8000C82448344AAF1A8
:1000E0000107DA4501D100F02FF8AFF2090EBAE8A6
:1000F0000F0013F0010F18BFFB1A43F0010318475C
:100100007401000094010000103A24BF78C878C13F
:10011000FAD8520724BF30C830C144BF04680C600D
:10012000704700000023002400250026103A28BF55
:1001300078C1FBD8520728BF30C148BF0B60704759
:100140001FB51FBD10B510BD00F05DF81146FFF7DB
:10015000F7FF00F027F800F07BF803B4FFF7F2FF99
:1001600003BC00F07FF800000948804709480047B9
:10017000FEE7FEE7FEE7FEE7FEE7FEE7FEE7FEE757
:10018000FEE7FEE704480549034A054B70470000B7
:1001900031070000CD00000008090010080B001016
:1001A0000809001000F0C4FA00BF00BF134800683F
:1001B00020F0F000114908600846006840F0500047
:1001C000086000BF00BF0846006920F00F0008610A
:1001D0000846006940F00A00086100BF00BF4FF404
:1001E000E13000F0C8F84FF4E13000F089F800F099
:1001F000D3FB00F043FD00BFFEE7000000C002405B
:10020000704770477047754600F028F8AE46050005
:100210006946534620F00700854618B020B5FFF721
:10022000B1FFBDE820404FF000064FF000074FF04F
:1002300000084FF0000B21F00701AC46ACE8C00904
:10024000ACE8C009ACE8C009ACE8C0098D4670470D
:100250000446AFF300802046FFF77FFF0048704759
:10026000A808001001491820ABBEFEE726000200D6
:1002700070470000B00C00000000001018000000E3
:1002800008010000C80C000018000010F00A00006F
:100290002401000000000000000000000000000039
:1002A000000000000000000000000000000000004E
:1002B000000000000000000000000000000000003E
:1002C000000000000000000000000000000000002E
:1002D000000000000000000000000000000000001E
:1002E000000000000000000000000000000000000E
:1002F000000000000000000000000000FFFFFFFF02
:1003000070B50646AF48006840F00800AE49C1F835
:10031000C400AE48006820F0C00040F04000AB4987
:1003200008604FF08300AA490873AA480468A748E8
:100330000068C0F3811020B1012804D0022806D142
:1003400003E0A40805E000BF03E0640801E0E4085E
:1003500000BF00BF2009B0FBF6F59D490D70280ACB
:1003600008710320087307200872012048600520E7
:1003700000F01CF970BD70B506469248006840F068
:1003800010009149C1F8C4009048006820F4407002
:1003900040F480708D4908604FF083008E490873E7
:1003A0008C48046889480068C0F3012020B1012806
:1003B00004D0022806D103E0A40805E000BF03E052
:1003C000640801E0E40800BF00BF2009B0FBF6F5B7
:1003D00081490D70280A08710320087307200872EC
:1003E00001204860062000F0E1F870BD00BF7849A8
:1003F000097D11F0200FFAD075490870704700BFD1
:100400007549097D11F0200FFAD0734908707047C3
:1004100000B5024603E012F8010BFFF7E7FF107882
:100420000028F8D100BD00B5024603E012F8010B28
:10043000FFF7E5FF10780028F8D100BD00BF027D6E
:1004400012F0200FFBD00170704710B50B46002151
:1004500007E000BF047D14F0200FFBD05C5C04704B
:10046000491C9142F5D310BD70B55948856815F007
:10047000010F61D1C5F34206022E01D0062E5AD1DA
:1004800054E05348047855480078F8B9AA2C07D1AD
:100490000220524908704E49204600F060FB3AE0C5
:1004A00001204E4908704E490868411C4C4A1160B1
:1004B0004C490C5404BB104602684548FFF7C5FF81
:1004C0000020464908704649086024E04348007807
:1004D000012812D142490868411C414A1160414932
:1004E0000C544CB9104602683948FFF7AEFF0020A3
:1004F0003A4908703A4908600DE038480078022807
:1005000009D13349204600F02AFB00F0C0FB10B9A6
:1005100000203249087032480068B0F57A7F04D371
:1005200000202F4908602D49087000BF2848007D31
:1005300010F0010FA5D100BF70BD70B526488468CA
:1005400014F0010F31D1C4F34205022D01D0062D64
:100550002AD124E0204806782348007810B90120E9
:100560002149087021490868411C204A116020492E
:100570000E544EB9104602681748FFF766FF002078
:10058000194908701949086018480068B0F57A7F61
:1005900004D30020154908601349087000BF0E48B5
:1005A000007D10F0010FD5D100BF70BD00F01F021B
:1005B0000121914042094FF0E02303EB8202C2F88F
:1005C00000117047C4C00F4000C00F40A8C10F40C9
:1005D00000C000400C0000100000014000000010AE
:1005E00004000010180000100100001008000010A6
:1005F0000004001095480068C0F30160032864D12E
:100600009348006810F0030006D0012823D0022888
:100610003FD0032858D100E000BF8C480068C0F3E9
:100620000E0000F101004FEA40008A4900FB01F092
:100630008949D1F88810C1F3074101F10101B0FBEC
:10064000F1F186480068C0B200F10100B1FBF0F0A2
:100650008349086038E07D480068C0F30E0000F16F
:1006600001004FEA40007F4900FB01F07A49D1F8D0
:100670008810C1F3074101F10101B0FBF1F17748A6
:100680000068C0B200F10100B1FBF0F074490860ED
:100690001AE06E480068C0F30E0000F101004FEA56
:1006A00000416D48D0F88800C0F3074000F1010018
:1006B000B1FBF0F169480068C0B200F10100B1FB84
:1006C000F0F06749086000BF2FE06148006810F053
:1006D000030006D0012810D0022819D0032823D106
:1006E00000E000BF5D480068C0B200F10100594958
:1006F000B1FBF0F05A49086016E058480068C0B2F3
:1007000000F101005749B1FBF0F0554908600BE0DA
:1007100052480068C0B200F101004FF40041B1FB43
:10072000F0F04F49086000BF00BF704700BFFEE710
:1007300020204D4908604848D0F8A00110F0200F53
:1007400005D000BF4848006810F0400FFAD00220E2
:10075000424908604FF000003F49C1F8A8014349F1
:1007600008604FF001003A4908604148414908607B
:100770004FF0AA00404908604FF0550008604FF064
:1007800001003E4908604FF0AA003B4908604FF065
:1007900055003149C1F88C0000BF2C48006810F0AA
:1007A000806FFAD00320354908604FF0AA002A492B
:1007B000C1F88C004FF055002F49086000BF234856
:1007C000006810F0407FFAD023202D4908604FF0D8
:1007D000AA002149C1F8AC004FF055002949086032
:1007E0004FF00100284908604FF0AA002549086031
:1007F0004FF055001849C1F8AC0000BF234800680D
:1008000010F4806FFAD003201F4908604FF0AA004F
:100810001149C1F8AC004FF055001A49086000BFFB
:100820001A48006810F4407FFAD019481949086046
:100830004FF000000849C1F8C80144F23A000860CE
:100840004FF00000144908607047000088C00F4056
:100850000CC10F4000093D0000C00F4004C10F4013
:100860000C000010001BB700A0C10F40ACC10F402E
:100870003B00030084C00F408CC00F4080C00F407D
:10088000A4C00F40ACC00F40A0C00F40A8C00F4094
:10089000DE872804C4C00F4008ED00E001460529AA
:1008A00012D2DFE801F00305080B0E00474870473D
:1008B00046482030FBE745484030F8E74348603081
:1008C000F5E742488030F2E70020F0E72DE9F041FB
:1008D00006460C46174698463046FFF7DFFF0546AA
:1008E0000DB11F2C01DDBDE8F0810120384901EB7D
:1008F000461108557FB128680121A14008432860AE
:10090000B8F1000F03D00120A040A86108E0012049
:10091000A040E86104E028680121A14088432860E4
:1009200000BFE0E72DE9F04106460C461746304689
:10093000FFF7B4FF05460DB11F2C01DDBDE8F081C6
:10094000234800EB4610005D00B9F7E71FB1012016
:10095000A040A86102E00120A040E86100BFEDE7EF
:1009600070B505460C462846FFF798FF06460EB1BF
:100970001F2C01DDFF2070BD154800EB4510005D08
:1009800008B9FF20F7E770690121A140084201D0B2
:100990000120F0E70020EEE710B500231A461A21E7
:1009A0001846FFF793FF00231A4619211846FFF750
:1009B0008DFF00231A4618210120FFF787FF00232F
:1009C0001A4619210120FFF781FF10BD00C0092040
:1009D000E807001070B504460D462878604028707E
:1009E000AA2C0AD17D21AB480068FFF727FD012121
:1009F000A8480068FFF722FD1EE0552C0AD17D2192
:100A0000A4480068FFF71AFD0221A2480068FFF71A
:100A100015FD11E07D2C0AD17D219E480068FFF76D
:100A20000DFD03219B480068FFF708FD04E0214607
:100A300098480068FFF702FD70BD7CB505460E467C
:100A400000200090AA2193480068FFF7F7FC0024DB
:100A500005E0285D6946FFF7BDFF601CC4B2B442E3
:100A6000F7DB0020019001A99DF80000FFF7B2FF1D
:100A7000552188480068FFF7E1FC7CBD38B5044685
:100A8000002000908DF8004002216846FFF7D5FF56
:100A900038BD38B5044680A0006800908DF800404D
:100AA00002216846FFF7C9FF38BDF8B57B480778D3
:100AB000522F02D0532F4BD127E0794800780328DA
:100AC00003D0E120FFF7E5FFF8BD7448467885784C
:100AD000042E01DC1F2D03DDE220FFF7DAFFF3E730
:100AE00029463046FFF73CFF0446FF2C03D1E320A4
:100AF000FFF7CFFFE8E752208DF800008DF80140A6
:100B000002216846FFF799FF26E06548007804282F
:100B100003D0E320FFF7BDFFD6E76048467885782D
:100B2000C4781F2D01DC012C03DDE420FFF7B1FFA9
:100B3000CAE72346012229463046FFF7C7FE224670
:100B400029463046FFF7EEFE5320FFF797FF03E0FC
:100B5000E020FFF79EFF00BF00BF00BFB4E72DE914
:100B6000F04104460E464B4806604E48007820B1DE
:100B700001280DD002287ED152E0AA2C07D10020F6
:100B8000474908704849087001204649087072E0DA
:100B90007D2C03D102204349087040E0552C2ED112
:100BA0003F480078012807DAE620FFF772FF0020AF
:100BB0003C490870BDE8F08139480078401E37494B
:100BC0000F5C0025002004E03449095C4D40411CC5
:100BD000C8B233490978491E8142F5DCBD4207D1CC
:100BE0002F480078401E2E490870FFF75EFF02E094
:100BF000E520FFF74EFF00202A4908700FE0284843
:100C00000078202808DA264801780078401C244A19
:100C100010702248445402E00020224908702AE063
:100C2000012C04D0022C04D0032C06D103E0AA240A
:100C300007E0552405E07D2403E0002019490870F1
:100C4000B8E700BF16480078202810DA1448017869
:100C50000078401C124A1070104844541248007822
:100C600060401149087001200E49087002E0002020
:100C70000C49087000BF00BF00BF9BE70020084977
:100C8000087008490870094802490860704705481B
:100C9000007870471400001000FF00008808001062
:100CA00011000010120000101000001000C00040E1
:100CB000000000000000000000000000000E2707F8
:080CC00000000000000000002C
:04000005000000CD2A
:00000001FF
